:0F07F50048656C6C6F20576F726C64200A0D00A2
:100734001200317F1E7E001207A11207CF120003A0
:100744001207E4E4F5DDF5D3F5D57BFF7A0779F5F7
:0C0754001206727F0A7E001207A180EEE0
:1000310075A15575A1AAE5B954F84407F5B9E4F5D8
:02004100A122FA
:10076000EF4E601D05A105A105A105A105A105A1EB
:1007700005A105A105A105A105A1EF1F70E21E803D
:02078000DF2276
:1007A100AD07AC06ED4C600E7FE87E03120760EDED
:0707B1001D70F11C80EE2217
:0408390043C6102280
:1005F900C29FD29EC29DC2CDC2CC438780E4756E94
:100609005B756D01F56CF56B7B0AFAF9F8AF6EAEA7
:100619006DAD6CAC6B12022EAF038F6FAF6EAE6D0A
:10062900AD6CAC6BE47B0AFAF9F812022E8F6E8E70
:100639006D8D6C8C6BC3E56F94057480948040114B
:10064900EF2401F56EE43EF56DE43DF56CE43CF50F
:100659006BE589540F4420F58943C9A0E56EF4047C
:08066900F58DD28ED299D29CCE
:010671002266
:080812003098FDC298AF992255
:08081A008F993099FDC299226B
:0E080400C2C7D2C5D2C475C2DED2ECD2AF22BA
:0808220030C0FDC2C0AFC122CD
:08082A008FC130C1FDC2C122E3
:1007B80075A15575A1AAEF600543B101800353B136
:0707C800FEE4F5A1F5FF229C
:03083D008FFF2208
:1006E10012011001FF000208861A235504030000BD
:1006F10000010902270001010080F0090400000344
:10070100FF01020007058202200000070502022006
:100711000000070581030800013000C300FFEC9FC2
:10072100ECFFECDFECDFECDFEC9FEC9FEC9FEC9F50
:03073100ECFFECEE
:06083200015400015D000D
:1007CF00E4F5E243E229F5E353E2BF53D1FB43D112
:0507DF008043D101225E
:1007E40043E10443E10243E10143D81FD2EAD2AF1B
:0107F40022E2
:1000030075E50075E40843EB0443EB0853EBFE7519
:10001300D41275EF0075EEA043EA4053EAEF75D2B0
:0E0023001275ED0075EC0053EAF375DC022255
:060672008B718A7289738E
:10067800E4F574F574AB71AA72A9738574827583F5
:100688000012013C6004057480EBD3E57494207477
:10069800809480402778487C007D01AB71AA72A9BC
:1006A800737E007F2012011675D52053D4FCE5D443
:1006B800540360FA74E02574F57480CEAF747E003C
:1006C80078487C007D01AB71AA72A9731201168566
:0806D80074D553D4FCE4F56174
:0106E00022F7
:10078200AFDB7E0078127C007D007B017A00790865
:0F079200120116E5D454F34408F5D47561012221
:0A057B008E628F638B648A658966C7
:10058500EA494B606EE4120169F567F568856769AC
:1005950085686AAB64AA65A966856A8285698312DE
:1005A500013CFFE56A2401FDE435698D82F583EFA1
:1005B50012017BE56A156AAE69700215694E70D342
:1005C500AE62AF63FC7D0A12019DED2430AB64AAD7
:1005D50065A966120169AE62AF637C007D0A1201EE
:1005E5009D8E628F630568E56870020567E5634562
:0305F50062709A97
:0105F80022E0
:030043000202C0F6
:0D02C000C0E0C0F0C083C082C0D075D0087F
:1002CD0020D9030204AFE5D9543F70030204A424DE
:1002DD00E0700302044B24FE601424F26021242EEE
:1002ED0060030204AD85DB5D1207820204AD75D596
:1002FD000053D4F3E5D454FC4402F5D40204AD8587
:10030D00DB70E57064086003020420900000E0F5E6
:10031D0052900006E0F511757000900001E0F55364
:10032D00AF527E00EF64C0702FE55490071A939082
:10033D000000F0E55490071B93900001F0757002DA
:10034D00C3E55494187480948050070554055402E5
:10035D000423755418020423EF64404E7006757023
:10036D0009020423E55324FB70030203FA24FD70F4
:10037D000302040214700302041824036003020430
:10038D0020900003E024FE601104701C755EFF7563
:10039D005F067560E17570128011755EFF755F0601
:1003AD007560F375702780037570FFE511D3957037
:1003BD004003857011C3E511940874809480400446
:1003CD007F088002AF118F707E0078007C007D0168
:1003DD00AB5EAA5FA960120116C3E5119570F51108
:1003ED00E5702560F560E4355FF55F8029900002CA
:1003FD00E0F5118021900000E510F0C3E5119401A6
:10040D00748094804010757001800B900002E0F5AF
:10041D001080037570FFAF707E00EFF47008755398
:10042D00FF75DCCF807AD3EF9408EE648094805012
:10043D00058570DD800375DD0075DCC08062E553D8
:10044D0024FB6041147048C3E511940874809480B6
:10045D0040047F088002AF118F707E0078007C0011
:10046D007D01AB5EAA5FA960120116C3E5119570FF
:10047D00F511E5702560F560E4355FF55F8570DD9C
:10048D0063DC40801BE5E354804511F5E380037583
:10049D00DD0075DC02800985DB7075DD0075DC0023
:1004AD00C2D930D80975E300C2DAC2D9C2D830DA60
:1004BD0023C2DAE5DA30E21FE5A220E7FB75A1558C
:1004CD0075A1AA75A98143870275A15575A1AA7554
:0704DD00A900800375D8009F
:0B04E400D0D0D082D083D0F0D0E03226
:030000000204EF08
:0C04EF00787FE4F6D8FD758174020536B4
:10004600E709F608DFFA8046E709F208DFFA803E9C
:1000560088828C83E709F0A3DFFA8032E309F60889
:10006600DFFA8078E309F208DFFA807088828C83F1
:10007600E309F0A3DFFA806489828A83E0A3F608A5
:10008600DFFA805889828A83E0A3F208DFFA804C7F
:1000960080D280FA80C680D4806980F28033801056
:1000A60080A680EA809A80A880DA80E280CA8033BF
:1000B60089828A83ECFAE493A3C8C582C8CCC58337
:1000C600CCF0A3C8C582C8CCC583CCDFE9DEE78007
:1000D6000D89828A83E493A3F608DFF9ECFAA9F086
:1000E600EDFB2289828A83ECFAE0A3C8C582C8CCDC
:1000F600C583CCF0A3C8C582C8CCC583CCDFEADEF5
:10010600E880DB89828A83E493A3F208DFF980CC56
:1001160088F0EF60010E4E60C388F0ED2402B4044F
:100126000050B9F582EB2402B4040050AF232345F6
:0601360082239000967385
:10013C00BB010CE58229F582E5833AF583E0225078
:10014C0006E92582F8E622BBFE06E92582F8E222C2
:0D015C00E58229F582E5833AF583E49322DC
:10016900BB010689828A83F0225002F722BBFE0175
:02017900F3226F
:10017B00F8BB010DE58229F582E5833AF583E8F0BA
:10018B00225006E92582C8F622BBFE05E92582C866
:02019B00F2224E
:10019D00BC000BBE0029EF8DF084FFADF022E4CC46
:1001AD00F875F008EF2FFFEE33FEEC33FCEE9DEC0F
:1001BD00984005FCEE9DFE0FD5F0E9E4CEFD22ED55
:1001CD00F8F5F0EE8420D21CFEADF075F008EF2F9F
:1001DD00FFED33FD4007985006D5F0F222C398FD90
:0501ED000FD5F0EA222D
:1001F20075F008758200EF2FFFEE33FECD33CDCCC4
:1002020033CCC58233C5829BED9AEC99E582984046
:100212000CF582EE9BFEED9AFDEC99FC0FD5F0D623
:10022200E4CEFBE4CDFAE4CCF9A88222B800C1B94D
:100232000059BA002DEC8BF084CFCECDFCE5F0CB8B
:10024200F97818EF2FFFEE33FEED33FDEC33FCEBC4
:1002520033FB10D703994004EB99FB0FD8E5E4F97F
:10026200FA227818EF2FFFEE33FEED33FDEC33FC6C
:10027200C933C910D7059BE99A4007EC9BFCE99A60
:10028200F90FD8E0E4C9FAE4CCFB2275F010EF2FA5
:10029200FFEE33FEED33FDCC33CCC833C810D707A5
:1002A2009BEC9AE899400AED9BFDEC9AFCE899F8E0
:0E02B2000FD5F0DAE4CDFBE4CCFAE4C8F92273
:1004FB00020734E493A3F8E493A34003F68001F2DC
:10050B0008DFF48029E493A3F85407240CC8C33301
:10051B00C4540F4420C8834004F456800146F6DFD0
:10052B00E4800B0102040810204080900832E47E26
:10053B00019360BCA3FF543F30E509541FFEE493C5
:10054B00A360010ECF54C025E060A840B8E493A38C
:10055B00FAE493A3F8E493A3C8C582C8CAC583CAB7
:10056B00F0A3C8C582C8CAC583CADFE9DEE780BE6F
:0108380000BF
:00000001FF
